:020000040800F2
:100000004809002099240008A1240008A32400081E
:10001000A5240008A7240008A92400080000000067
:10002000000000000000000000000000AB240008F9
:10003000AD24000800000000AF240008B12400082F
:10004000B3240008B3240008B3240008B324000834
:10005000B3240008B3240008B3240008B324000824
:10006000B3240008B3240008B3240008B324000814
:10007000B3240008B3240008B3240008B324000804
:10008000B3240008B3240008B3240008B3240008F4
:10009000B3240008B3240008B3240008B3240008E4
:1000A000B3240008B3240008B3240008B3240008D4
:1000B0003F5E0008B3240008B3240008B3240008FE
:1000C000B3240008D9240008DB250008B324000865
:1000D000B3240008B3240008B3240008B3240008A4
:1000E000BD3B0008B3240008B3240008B324000873
:1000F000B324000800F002F800F05EF80AA090E8CF
:10010000000C82448344AAF10107DA4501D100F0D2
:1001100053F8AFF2090EBAE80F0013F0010F18BF41
:10012000FB1A43F001031847587D0000787D00005A
:100130000A444FF0000C10F8013B13F0070408BF0D
:1001400010F8014B1D1108BF10F8015B641E05D0AB
:1001500010F8016B641E01F8016BF9D113F0080F60
:100160001EBF10F8014BAD1C0C1B09D16D1E58BFF2
:1001700001F801CBFAD505E014F8016B01F8016B29
:100180006D1EF9D59142D6D370470000002300249C
:1001900000250026103A28BF78C1FBD8520728BF97
:1001A00030C148BF0B6070471FB59DE8030005F0E4
:1001B00085FF1FBD10B510BD06F0BCF81146FFF756
:1001C000F3FF01F0FCFE06F0DAF803B4FFF7F2FFEC
:1001D00003BC06F007F9000031490143314A1160C0
:1001E000704770B5002100230F22C47804B32D4C52
:1001F000246804F4E064C4F5E064210AC1F1040356
:10020000CA40447804FA03F1847814402143090178
:10021000254C0678A155047804F01F050124AC4054
:1002200005786D11AD0005F1E025C5F8004109E044
:10023000047804F01F050124AC401C4D06787611AB
:1002400045F8264070BD1A4A0A400243154B1B1F51
:100250001A60704739B1134A121D12680243114BDC
:100260001B1D1A6006E00F4A121D126882430D4BD7
:100270001B1D1A607047042808D14FF0E02109695E
:1002800041F004014FF0E022116107E04FF0E0215E
:10029000096921F004014FF0E0221161704700006C
:1002A0000000FA050CED00E000E400E080E100E071
:1002B00080FFFF1F10B504467348844208D1012116
:1002C000084600F090FA0021012000F08CFA3AE094
:1002D0006E48844208D10121022000F084FA0021F6
:1002E000022000F080FA2EE06948844208D1012102
:1002F000042000F078FA0021042000F074FA22E0D3
:100300006448844208D10121082000F06CFA0021E1
:10031000082000F068FA16E05F48844208D1012105
:10032000102000F060FA0021102000F05CFA0AE0D2
:100330005A48844207D10121202000F054FA0021BC
:10034000202000F050FA10BDF0B50A46002100232D
:10035000002400BF3DE0012505FA01F3156805EA18
:1003600003049C4234D105684F000326BE40B543C8
:10037000056015794E00B54006683543056015796E
:10038000012D02D01579022D16D185684F00032664
:10039000BE40B543856055794E00B540866835430B
:1003A0008560858801268E40B5438580858896794D
:1003B0008E40B6B235438580C5684F000326BE40E7
:1003C000B543C560D5794E00B540C6683543C560B4
:1003D000491C1029BFD3F0BD4FF6FF710160002109
:1003E000017141718171C17170474FF480320A43CC
:1003F000C261C161C261C269C26970470246002020
:10040000138A0B400BB1012000E000207047014629
:10041000088A704702460020938A0B400BB10120E6
:1004200000E0002070470146888A704701837047CA
:10043000418370470AB1018300E0418370478182A4
:100440007047F0B5002300244D07ED0E02FA05F3C6
:10045000CE1000F1200555F826504E07F70E0F2656
:10046000BE40B543CF1000F1200646F82750CE100D
:1004700000F1200555F8265045EA0304CE1000F19E
:10048000200545F82640F0BD00000240000402406F
:1004900000080240000C024000100240001402401C
:1004A000F748006840F48070F5490860F448083067
:1004B0000068F4490840F24908310860F0480068D3
:1004C000F1490840EE4908600846006820F48020A1
:1004D0000860EB480830006820F47D00E8490831E6
:1004E00008600020091D086070470021E44A921C42
:1004F000117011460870704710B5014600220023A4
:1005000000204A11012A02D1DD4C236802E0DC4CB4
:100510003434236801F01F02012494401C400CB1C4
:10052000012000E0002010BD38B50020009000241C
:10053000002500BF3120FFF7DFFF05460098401C73
:1005400000900098B0F5A06F01D0002DF2D03120BE
:10055000FFF7D2FF08B1012400E00024204638BD97
:10056000C749C91D0870704701460020C44A121DC2
:10057000106820F46040084310607047C349086267
:10058000704701460020BE4A121D106820F4F85042
:1005900040EA012010607047BC49086070470021A4
:1005A000B74A35321170114608707047B849086073
:1005B000704710B541EA02030343B14C0A3423707B
:1005C00010BDB24908667047B0490867704740EAF5
:1005D0000102AB4B0B331A70704701460020A84A4A
:1005E0000832106820F00300084310607047A448E8
:1005F0000830006800F00C00704701460020A04A57
:100600000832106820F0F00008431060704701467F
:1006100000209B4A0832106820F4E0600843106014
:10062000704701460020964A0832106820F4605056
:1006300040EAC10010607047F0B50021002200239D
:100640000026002400258E4F08373F6807F00C0174
:1006500031B1042912D0082913D00C2937D113E065
:10066000874F3F1D3F68C7F342356F1C4FF0010CA9
:100670000CFA07FC4FEACC37076036E0854F07607D
:1006800033E0854F076030E07D4F08373F6807F45F
:1006900070127B4F08373F6807F440037F4F07EB2A
:1006A00092473A78012707EB9353754F08373F6815
:1006B00007F480362EB9774F5743B7FBF3F707603F
:1006C00004E0754F5743B7FBF3F707600DE06C4F3D
:1006D0003F1D3F68C7F342356F1C4FF0010C0CFA09
:1006E00007FC4FEACC37076000BF00BF644F0837F4
:1006F0003F6807F0F0010909694F7C5C0768E74033
:1007000047605F4F08373F6807F4E061090A644FAC
:100710007C5C4768E7408760594F08373F6807F4BB
:100720006051C90A5E4F7C5C4768E740C760F0BD16
:10073000002100F44032B2F5403F08D1504A116820
:1007400021F0C04100F0C04211434D4A11604C4AB3
:100750003432126822F44032494B34331A601A465C
:10076000126800F440331A43454B34331A60704723
:10077000474958310860704745495C310860704707
:1007800039B13F4A1C32126802433D4B1C331A6098
:1007900006E03B4A1C3212688243394B1C331A6014
:1007A000704739B1364A203212680243344B203345
:1007B0001A6006E0324A203212688243304B2033FE
:1007C0001A60704739B12E4A2432126802432C4B0A
:1007D00024331A6006E02A4A243212688243284BE6
:1007E00024331A60704739B1254A10321268024327
:1007F000234B10331A6006E0214A103212688243FC
:100800001F4B10331A60704739B11D4A14321268F9
:1008100002431B4B14331A6006E0194A1432126863
:100820008243174B14331A60704739B1144A183297
:1008300012680243124B18331A6006E0104A18324D
:10084000126882430E4B18331A60704739B10C4A54
:100850002832126802430A4B28331A6006E0084A1D
:10086000283212688243064B28331A607047C9B198
:10087000034A2C3212680243014B2C331A6016E0F3
:10088000003802400CC0FF88FEFFFEEE0000474229
:10089000800647420024F40000127A000000002085
:1008A000090000201F4A126882431E4B1A607047DD
:1008B00039B11C4A121D126802431A4B1B1D1A60E3
:1008C00006E0184A121D12688243164B1B1D1A605F
:1008D000704739B1134A1F3A12780243114B1F3B3C
:1008E0001A7006E00F4A1F3A127882430D4B1F3BE5
:1008F0001A7070470B480830006840F08070094952
:1009000008310860704701460020064A203A126804
:100910000A400AB1012000E00020704701491E3959
:10092000087070472C38024010B501210846FFF7C7
:100930006BFF00210120FFF767FF10BD00209249E7
:100940000860091D0860091D0860091D0860091D6F
:100950000860091D086070478C490860704730B115
:100960008A49496841F00101884A516005E0874998
:10097000496821F00101854A5160704730B5002275
:100980008B071C0F0F2303FA04F2804B08338C10E3
:1009900053F8243093437D4C08348D1044F82530AF
:1009A00023468C1053F824308C07240F00FA04F4EB
:1009B0002343764C08348D1044F8253030BD014671
:1009C0000020714A106820F44030084310607047DE
:1009D000024600206C4B1868104302F48023B3F5E4
:1009E000802F02D120F00F00084302F40023B3F55A
:1009F000002F03D120F0F00040EA011002F4801330
:100A0000B3F5801F03D120F4706040EA012002F4A6
:100A10000013B3F5001F03D120F4704040EA013009
:100A2000594B1860704739B1574A121F1268024378
:100A3000554B1B1F1A6006E0534A121F126882436F
:100A4000514B1B1F1A60704710B50022C20F20F0D7
:100A5000004081B13AB14C4B1B1D1B6803434A4C0B
:100A6000241D236017E0484B08331B680343464CA2
:100A7000083423600FE03AB1434B1B1D1B688343CE
:100A8000414C241D236006E03F4B08331B68834321
:100A90003D4C0834236010BD40B13B49091D096835
:100AA00041F00041384A121D116007E03649091D26
:100AB000096821F00041344A121D1160704710B5D9
:100AC000012810D13AB1304B0C331B688B432E4CAC
:100AD0000C34236056E02C4B0C331B680B432A4C20
:100AE0000C3423604EE0022813D14AB1264B0C335C
:100AF0001B68CC4303EA0443234C0C34236041E0DD
:100B0000214B0C331B6843EA01431F4C0C34236018
:100B100038E0032810D13AB11B4B10331B688B43CC
:100B2000194C103423602DE0174B10331B680B4316
:100B3000154C1034236025E0042813D14AB1124B20
:100B400010331B68CC4303EA04430F4C103423607A
:100B500018E00D4B10331B6843EA01430A4C103474
:100B600023600FE03AB1084B14331B688B43064CEB
:100B70001434236006E0044B14331B680B43024C0F
:100B80001434236010BD0000047C004000000140CC
:100B9000002044490860091D0860091D0860091DFE
:100BA000086041483F4914310860704700213D49C1
:100BB0008279002A3AD00A46126803689A430B46A3
:100BC0001A600A1D126803689A430B1D1A600279A5
:100BD00011440A6803681A430A60324A08321268EC
:100BE00003689A432F4B08331A601A1D1268036872
:100BF0009A432C4B0C331A604279102A0ED11A1FDB
:100C0000126803681A43274B08331A601A1D1268CA
:100C100003681A43234B0C331A600DE021494279D3
:100C200011440A6803681A430A6005E00279114416
:100C30000A6803689A430A607047002101600171E5
:100C40000C214171002181717047164910310968EA
:100C50000143144A10321160704701460020114AC6
:100C6000143212680A400AB1012000E000207047E7
:100C70000C49143108607047014600200022094BDE
:100C80001B6803EA0102074B14331B680B4013B1C6
:100C90000AB1012000E000207047024914310860C9
:100CA0007047000000040140FFFF7F0010B50446BC
:100CB000F348844209D101214805FFF7B6FD002120
:100CC0004FF40010FFF7B1FD08E001218805FFF7A0
:100CD000ACFD00214FF48000FFF7A7FD10BD2DE90A
:100CE000FF4704460D460026B1460427DFF89483EB
:100CF000A6884FF6C07006406846FFF79DFCDDF8F9
:100D00000880E148B8FBF0F01FFA80F946EA0906CE
:100D1000A68020884FF6FE71084020800026DB491F
:100D2000286888420CD828684000B8FBF0F087B2E9
:100D3000042F00DA04273E4309F10100208427E054
:100D4000E8884BF6FF71884206D1286800EB400026
:100D5000B8FBF0F087B209E0286800EBC00101EBB6
:100D60000010B8FBF0F087B247F48047C7F30B00E0
:100D700008B947F0010747F4004006434FF4967066
:100D800009FB00F04FF47A7190FBF1F0401C2084D5
:100D9000A683208840F00100208026884FF6F53099
:100DA0000640A8886989084306432680A8892989BE
:100DB00008432081BDE8FF8741F2883101600021AE
:100DC00081804BF6FF71C1800021018141814FF488
:100DD00080418181704721B1028842F00102028086
:100DE00004E002884FF6FE731A400280704721B17A
:100DF000028842F48072028004E002884FF6FF63AA
:100E00001A400280704721B1028842F400720280C9
:100E100004E002884FF6FF531A400280704721B168
:100E2000028842F48062028004E002884FF6FF33B9
:100E30001A40028070470A46002181894FF60173EB
:100E4000194002F0FE0319438181704721B1828964
:100E500042F00102828104E082894FF6FE731A405B
:100E60008281704721B1028842F04002028004E092
:100E700002884FF6BF731A400280704721B1028882
:100E800042F40042028003E00288C2F30E020280B4
:100E90007047B1F5005F04D1028842F4005202802D
:100EA00004E002884DF6FF731A400280704721B1BA
:100EB000028842F01002028004E002884FF6EF73CD
:100EC0001A400280704721B9028842F080020280F5
:100ED00004E002884FF67F731A4002807047B1F534
:100EE000804F05D0828B4BF6FF731A40828303E05C
:100EF000828B42F480428283704712B141F001013B
:100F000001E001F0FE010182704701827047014655
:100F1000088AC0B2704721B1028842F48052028030
:100F200004E002884EF6FF731A4002807047B1F564
:100F3000006F04D1028842F40062028004E002885B
:100F40004FF2FF731A400280704721B1028842F0CD
:100F50002002028004E002884FF6DF731A4002800C
:100F600070470146088B0012704721B1828842F415
:100F70000062828004E082884FF2FF731A40828010
:100F8000704721B1828842F48052828004E08288D6
:100F90004EF6FF731A408280704708B50246002063
:100FA000009000920098084400900098008808BDC6
:100FB0001AB183880B43838002E083888B4383804C
:100FC000704770B502460024002500230020958A52
:100FD000138B1B0445EA030626F07F4404EA01064E
:100FE0008E4201D1012000E0002070BD10B5014605
:100FF0000020002300228B8A0A8B120443EA020499
:1010000024F07F4010BD0CB5024600200023019360
:10101000009300920B0F019321F07F41019B1BB1C4
:10102000009B1433009303E0090C009B18330093DA
:10103000009B1B680B400BB1012000E000200CBDA1
:10104000002221F07F42D3438382704730B50246AD
:1010500000200023948801F0E06504EA154321F0A4
:101060007F41948A0C4014B10BB1012000E00020B4
:1010700030BD002221F07F42D343838270470000BD
:101080000054004000127A0040420F00A086010088
:1010900010B50446B4F1804F08D101210846FFF78E
:1010A000C4FB00210120FFF7C0FB52E0F948844255
:1010B00008D101210220FFF7B8FB00210220FFF731
:1010C000B4FB46E0F448844208D101210420FFF734
:1010D000ACFB00210420FFF7A8FB3AE0EF48844274
:1010E00008D101211020FFF7A0FB00211020FFF7FD
:1010F0009CFB2EE0EA48844208D101212020FFF722
:1011000094FB00212020FFF790FB22E0E548844279
:1011100008D101210420FFF777FB00210420FFF70D
:1011200073FB16E0E048844208D101210820FFF754
:101130006BFB00210820FFF767FB0AE0DB488442D5
:1011400007D101211020FFF75FFB00211020FFF7DE
:101150005BFB10BD00220288B0F1804F05D0CD4B63
:10116000984202D0CC4B984204D14FF68F731A406C
:101170004B881A43C94B984207D0C94B984204D0B8
:101180004FF6FF431A40CB881A4302808B88838531
:101190000B8803850123838270474FF6FF7181809E
:1011A00000210180C18041807047018582827047A3
:1011B0000A46002101884FF68F73194011430180C0
:1011C000704781847047818570470146888C7047DD
:1011D0000146088D704721B1028842F00202028068
:1011E00004E002884FF6FD731A400280704721B177
:1011F000028842F00402028004E002884FF6FB738A
:101200001A400280704721B1028842F080020280B9
:1012100004E002884FF67F731A400280704702880C
:101220004FF6F7731A40028002880A430280704723
:1012300002884FF6FF431A40028002880A43028068
:10124000704721B1028842F00102028004E0028866
:101250004FF6FE731A400280704730B5002300221B
:10126000048C4FF6FE752C400484028C038B4FF6E1
:101270008F742340AC1E23400C8823436C1E2240F5
:10128000CC8822434C8822438C8884860383028442
:1012900030BD30B500230022048C4FF6EF752C4092
:1012A0000484028C038B48F6FF7423400C884FF6AD
:1012B000FF7505EA042423434FF6DF742240CC88EF
:1012C00005EA041422434C8805EA041422438C885E
:1012D00004870383028430BD30B500230022048CD0
:1012E0004FF6FF652C400484028C838B4FF68F747D
:1012F00023400C8823434FF6FF542240CC884FF6FE
:10130000FF7505EA042422434C8805EA042422439D
:101310008C8884878383028430BD30B5002300220B
:10132000048C4EF6FF752C400484028C838B48F6A7
:10133000FF7423400C884FF6FF7505EA042423430D
:101340004DF6FF742240CC8805EA043422434C88D1
:1013500005EA043422438C88A0F840408383028449
:1013600030BD0021018041808180C180704770B50F
:101370000346002000241846183001258D40ACB2E9
:101380001D8CA5431D8409B1082909D100EB61001A
:10139000056825F0700505600568154305600EE0D9
:1013A0000D1FC5F34E052844056825F4E04505608A
:1013B00005684FF6FF7606EA02263543056070BDE4
:1013C000818670470187704781877047A0F8401079
:1013D00070470A460021018B4FF68F731940114365
:1013E000018370470A460021018B48F6FF731940BC
:1013F0004FF6FF7303EA02231943018370470A463D
:101400000021818B4FF68F73194011438183704700
:101410000A460021818B48F6FF7319404FF6FF738F
:1014200003EA02231943818370470A460021018B96
:101430004FF6F77319401143018370470A460021A4
:10144000018B4FF2FF7319404FF6FF7303EA02233B
:101450001943018370470A460021818B4FF6F773C9
:1014600019401143818370470A460021818B4FF256
:10147000FF7319404FF6FF7303EA02231943818378
:1014800070470A460021018B4FF6FB731940114348
:101490000183704700040040000800400010004035
:1014A0000014004000080140000C01400010014001
:1014B0000A460021018B4FF6FF3319404FF6FF73A8
:1014C00003EA02231943018370470A460021818BF6
:1014D0004FF6FB7319401143818370470A46002180
:1014E000818B4FF6FF3319404FF6FF7303EA022357
:1014F0001943818370470A460021018B4FF67F73A1
:1015000019401143018370470A460021018BC1F342
:101510000E014FF6FF7303EA02231943018370475C
:101520000A460021818B4FF67F7319401143818356
:1015300070470A460021818BC1F30E014FF6FF73FD
:1015400003EA02231943818370470A460021018C74
:101550004FF6FD7319401143018470470A4600217C
:10156000018C4FF6DF7319404FF6FF7303EA021345
:101570001943018470470A460021018C4FF6FF533E
:1015800019404FF6FF7303EA0223194301847047A1
:101590000A460021018C4DF6FF7319404FF6FF7388
:1015A00003EA023319430184704702894FF6F77347
:1015B0001A40028102890A430281704730B5002334
:1015C00001248C40A3B2048C9C430484048C02FA52
:1015D00001F5ADB22C43048430BD828B4FF2FF3352
:1015E0001A408283828B4FF6FF7303EA01231A436A
:1015F00082837047F0B50C46154600210022002674
:10160000078C4EF6FF7C07EA0C070784818B028C5F
:101610004FF6FF7707EA043640F6FF4739404FF6AA
:10162000FF7707EA052739434FF6FF7707EA0337C5
:10163000394345F6FF773A4046F480573A43818371
:101640000284F0BD828B4FF6F3731A408283828B43
:101650000A4382837047F0B50C46154600210022EC
:101660000026078C4FF6FF6C07EA0C070784818B76
:10167000028C4FF6FF7707EA04264FF60C773940C5
:101680004FF6FF7707EA03172F4339434FF2FF570F
:101690003A4046F480773A4381830284F0BD028B5E
:1016A0004FF2FF331A400283028B4FF6FF7303EAB7
:1016B00001231A4302837047F0B50C4615460021FA
:1016C00000220026078C4FF6EF7C07EA0C07078400
:1016D000018B028C4FF6FF7707EA041640F6FF47AE
:1016E00039404FF6FF7707EA033739434FF6FF7764
:1016F00007EA052739434FF65F773A4046F010076F
:101700003A4301830284F0BD028B4FF6F3731A4013
:101710000283028B0A4302837047F0B50C461546DC
:1017200000210022068C4FF6FE773E400684018B96
:10173000028C4FF60C7631407E1C06EA03162E43CF
:1017400031434FF6F576324044F0010632430183CF
:101750000284F0BD70B505460C46208850B9238937
:10176000A28861882846FFF7D8FFE1882846FFF75E
:10177000CBFF25E0208804280AD12389A28861882C
:101780002846FFF799FFE1882846FFF788FF17E012
:10179000208808280AD12389A28861882846FFF773
:1017A0005AFFE1882846FFF74DFF09E02389A28808
:1017B00061882846FFF71EFFE1882846FFF70DFFE6
:1017C00070BD002101804180012181800021C18004
:1017D000018170472DE9F04105460C46002601279E
:1017E000608808B9022600E00026A088012801D1FF
:1017F000022700E001272088A0B92389A2886188F8
:101800002846FFF78AFFE1882846FFF77DFF2389F6
:101810003A4631462846FFF74FFFE1882846FFF752
:101820003EFF13E02389A28861882846FFF744FF22
:10183000E1882846FFF733FF23893A463146284698
:10184000FFF76BFFE1882846FFF75EFFBDE8F081F8
:101850000146888E70470146088F70470146888F81
:1018600070470146B1F8400070471AB183890B43B5
:10187000838102E083898B43838170478182704733
:1018800002460020138A0B400BB1012000E000202B
:101890007047CA430282704730B5024600200023D9
:1018A0000024158A05EA0103958905EA010413B1AC
:1018B0000CB1012000E0002030BDCA430282704715
:1018C00041EA0203A0F8483070471AB183890B43FC
:1018D000838102E083898B438381704721B18288B1
:1018E00042F00802828004E082884FF6F7731A40C3
:1018F0008280704701894FF6F8721140018170476C
:101900000A46002101894FF68F7319401143018166
:10191000704730B504460D4629462046FFF7F0FFD4
:10192000208940F00700208130BD2DE9F0410446B8
:101930000D4616461F46602D06D13B460122314614
:101940002046FFF7B9FE05E03B460122314620461E
:10195000FFF7E3FE29462046FFF7D2FF208940F03B
:1019600007002081BDE8F08130B50C4600210189D7
:10197000C9B24FF6FF7505EA0325154325432943F0
:10198000018130BD2DE9F04105460E4617469846C7
:10199000002443463A4631462846FFF7E5FF2C89A6
:1019A0004FF6F870044044F007044FF68F7004407F
:1019B00044F070042C81BDE8F081F0B504460D467A
:1019C00016461F463B46324629462046FFF7CCFFC7
:1019D000208940F480402081F0BD82884FF68F73CB
:1019E0001A40828082880A438280704702894FF6BB
:1019F000F8731A40028102890A4302817047028902
:101A00004FF67F731A40028102890A4302817047B0
:101A1000F0B50C4615461E46002100220023018920
:101A2000028B038C4FF6F877394021434FF6FC4781
:101A30003A4040F201173A434FF6DD773B404FF60C
:101A4000FF7707EA06172F433B4301810283038494
:101A5000F0BD21B1828842F08002828004E0828859
:101A60004FF67F731A4082807047A0F8501070477D
:101A70002DE9F04F87B004460020069005900490B1
:101A800082468146B4F900000490B4F902A0B4F98A
:101A90000490049949430AFB0A1109FB091005F057
:101AA00050F9074604F076FE054604F099FE0690CC
:101AB000484605F069FE0190069905F053FD8346FE
:101AC00005F0B6FCCDE9020104F02CFD054600222C
:101AD000FA4B05F09DF9074605F004F905900598C5
:101AE00007B0BDE8F08F1CB501210846FEF748FE9F
:101AF000012000908DF8040000208DF806008DF87C
:101B0000070001208DF805006946ED48FEF71CFC32
:101B10000121EB48FEF78AFC1CBD2DE9F04F87B090
:101B2000044600200690002500268146B4F90000F6
:101B300005F02AFE0546B4F9020005F025FE06462A
:101B4000B4F9040005F020FE8146284605F070FC3B
:101B5000DC4ADD4BCDE9040105F05AF907460022C5
:101B6000DA4B04F02BFF824604F03AFE054630467D
:101B700005F05EFCD34AD44BCDE9040105F048F9E9
:101B800007460022D14B04F019FF824604F028FEDC
:101B90000646484605F04CFC8246CA4ACC4B05F046
:101BA00037F907460022C94B04F008FFCDE90401CC
:101BB00004F016FE81464946484605F045FE31468A
:101BC0000390304605F040FE29460290284605F075
:101BD0003BFE0190029905F057FC8346039905F0FE
:101BE00053FC824605F024FC074604F0D3FDCDE902
:101BF000040104F0F5FD0690069807B0BDE8F08FEB
:101C00002DE9F04105460E460027002400BF06E0FE
:101C100055F82410384605F037FC0746641CB442DA
:101C2000F6DB4FF08141384605F09CFC07464FF04B
:101C30008241384605F0D4FE01D8A64F28E0A649D7
:101C4000384605F0CDFE07D84FF08241384605F002
:101C5000C7FD01D2A14F1BE04FF08141384605F08E
:101C6000BFFE06D89C49384605F0BAFD01D29C4F0C
:101C70000EE09C49384605F0B3FE08D84FF081418C
:101C8000384605F0ADFD02D24FF0804700E0964F98
:101C90003846BDE8F08170B50546002493480668D3
:101CA0009348006804280ADA92489149096840F884
:101CB00021508F480068401C8D49086012E00421C3
:101CC0008C48FFF79DFF0646012407E0894850F83D
:101CD0002410601E874A42F82010641C042CF5DB97
:101CE0008448C560304670BD70B505460C468249D3
:101CF000284605F075FE01D8002070BD7F480068B9
:101D00007F4908602146284605F06AFE08D8012070
:101D10007A4908607B480068401C7A49086008E0FE
:101D2000784800687849086000207649086073495F
:101D300008607248006878B97148006860B17248FC
:101D40000068022804DA7149204605F049FE03D8EC
:101D50006F4804600120D0E76948006830B96748DF
:101D6000006818B16B4804600020C6E70020C4E793
:101D700070B5044600216848006805F0B5FC02D142
:101D8000654804604EE0644801682046FFF7ACFFF8
:101D9000002847D0614800686149086061480068D0
:101DA00061490860084600685D490968401A0228D0
:101DB00015D3584801685648006805F043FE0546AB
:101DC0004A480168284605F00BFE08D856480068C6
:101DD0005249086055480068401C54490860524800
:101DE00000684F490968401A02281BD34948016816
:101DF0004748006805F026FE05464D48016828461C
:101E000005F0EEFD0ED84848006844490860414896
:101E100001683F48006805F015FE0546FFF73BFFE7
:101E2000324908603C48046070BD10B51E2141482D
:101E300004F0FEF85A203F4908703F480088000A25
:101E400048703D48007888705A20C8703B48008828
:101E5000000A087139480078487139480088000A3A
:101E6000887137480078C87135480068401C34498B
:101E7000086008212F4800F059FC00202B49086019
:101E80002E4908602C49086010BD10B501210C488E
:101E9000FEF7CEFA1E2001F010FD01210848FEF7E2
:101EA000C5FA10BD10B52748FFF7E2FD26490860C6
:101EB0000A461168002949DB0A4648E000EA8140E9
:101EC000000002409A999999999943C00000F04006
:101ED000999943409A9989400000E0403333534038
:101EE00033331340000040406666A63FAC0000203C
:101EF00078000020D4010020000070417C00002008
:101F00008800002080000020840000200000A04104
:101F10008C00002090000020A400002094000020ED
:101F200098000020940100209C0000206C000020FC
:101F3000A8000020980100207000002074000020FC
:101F4000B000002036000020240000204A42B2F5F4
:101F5000487F0BDC9B4A1068002801DB024600E04A
:101F60004242642A26DA984A12781AB397480068DF
:101F7000F8B197480068E0B196480068052813DD7D
:101F800091480078012803D100208F49087002E0B1
:101F900001208D490870FFF778FF00208D49086007
:101FA0008B490860012010BD8A480068401C89499F
:101FB000086002E00120864908600020F3E78AB04B
:101FC00000BF002006900021049105910291039129
:101FD0000024019000F094FB00F0E8FB01F03DF8D4
:101FE00000F0E7FF012001F004F800F054FF01F0D9
:101FF000B5FC012001F006FD012001F01DFD02F0FD
:102000001EFC782001F00BFF782002F09CF81420D1
:1020100002F0CBFB08A802F058FA07A802F0C9FAB0
:1020200009A802F0A9FA642001F047FC03F03CFF84
:10203000FFF759FDC0E068480068012838D11E212B
:10204000664803F0D3FF6649644800F07FFB002038
:10205000614908606148007855280ED0662802D092
:10206000772819D105E0002058490860FFF7DDFE08
:102070001DE001205549086019E000BF594800687B
:1020800000F4E06058490843001D56490860BFF35A
:10209000408F00BF00BFFEE75048007853490870EA
:1020A0004E48407848704D488078887000BF00BF27
:1020B00046480068002857D11E214D4803F0B8FF5C
:1020C0004C4800F0A5FE4A484A490A6802608988DF
:1020D000818002A904A801F046FBDDE9020104F0B9
:1020E0007FFB04464248C0F8064001A801F0C0FC4E
:1020F000BDF8040040F2EE21884203DD00203E4995
:10210000087002E005203C49087039483A490978CE
:1021100081723A4801F0C2FC354838490968C0F874
:102120000B1006A9364802F09EFC06A9354802F0BD
:10213000CDFC2F480F3033490A68026089888180BE
:10214000801D2F490A68026089888180012001F082
:10215000B4FB2D48006878B31C21254800F0E6FA4E
:1021600000202949086027E006A9264802F0AEFCB5
:102170002448FFF7D2FC0546FFF7FAFD1B4800781C
:10218000172813D1194840783B280FD11748807879
:102190003B280BD11D4800681D49086000201D49DF
:1021A00008601A4908601C49086003E01748006885
:1021B00018490860FFF776FE3DE700E0401E002862
:1021C000FCD17047240000203400002028000020AB
:1021D0001C00002020000020E8000020B6010020A4
:1021E0006A0000200CED00E00000FA0590010020DC
:1021F000980100203C000020FC0000204800002046
:102200004200002036000020E40000206C00002086
:102210007000002074000020B00000200CB50020E9
:10222000019000909048006840F001008E490860DD
:1022300000BF8D48006800F0020000900198401C2B
:102240000190009818B90198B0F5A06FF1D18648B7
:10225000006800F0020010B10120009001E00020B1
:102260000090009801283FD18048006840F00400A9
:102270007E4908600846006840F002000860084691
:10228000006840F00100086077482430006840F0A2
:102290008050754924310860C8147549086000BF32
:1022A0007348406800F010000028F9D16E480830EB
:1022B00000686D49083108600846006808600846F3
:1022C000006808600846006820F0030008600846BF
:1022D000006840F00100086000BF634808300068F3
:1022E00000F00C000428F8D10CBD10B5FFF796FFE4
:1022F00010BD1CB55C48006840F480705A49086005
:102300005948083000685B4908405749083108605F
:102310005548006858490840534908600846006815
:1023200020F48020086050480830006820F47D00C8
:102330004D49083108600020091D0860FFF7D5FFEE
:1023400001210846FEF71CFA1020009003208DF8AA
:10235000050000208DF8070003208DF80400694671
:102360004648FDF7F1FF2020009001208DF8040081
:1023700000208DF806008DF8070003208DF8050079
:1023800069463E48FDF7E0FF1CBDF0B50023002183
:10239000002200240020344D08352D6805F00C0380
:1023A00033B1042B18D0082B1AD00C2B41D11BE0D1
:1023B0002D4D2D1D2D68C5F34230012585404FF46C
:1023C0007A4675432E4E365C40F277177E43A5EB76
:1023D00086152C4E356038E02B4D2A4E356034E0A2
:1023E0002A4D284E356030E01F4D08352D6805F424
:1023F00070111D4D08352D6805F44002244D05EB84
:1024000091452978012505EB9252174D08352D6825
:1024100005F4803434B91C4D4D43B5FBF2F5194E2B
:10242000356005E0194D4D43B5FBF2F5154E3560AD
:102430000BE00D4D2D1D2D68C5F34230451C0126C6
:10244000AE40F5030F4E356000BF00BF064D0835A6
:102450002D68C5F303150F4E735D0A4D2D68DD40E1
:10246000084E3560F0BD000000380240003C0240DC
:10247000007000400CC0FF88FEFFFEEE000002402E
:10248000C1000020B40000200024F40000127A00F3
:10249000B8000020C80000200948804709480047CC
:1024A000FEE7FEE7FEE7FEE7FEE7FEE7FEE7FEE704
:1024B000FEE7FEE704480549054A064B7047000061
:1024C000F3220008F5000008480300204809002016
:1024D000480500204805002010B5A648FEF786FDF7
:1024E0000446A549601A8C4223D005DC102C33D059
:1024F000B4F1021F6ED106E0A0F580204238D8B3B7
:10250000022867D153E09D480068012101EB0010CB
:102510009A49086001209A4908600020994908609A
:1025200014219448FEF739FD18219248FEF735FD35
:1025300051E092480068022101EB00108F490860C9
:102540008C48FEF7E4FC8F490A680968491C8D4BEA
:1025500019608D4988543EE088480068032101EBEA
:1025600000108649086089498248FEF74CFD012128
:102570008048FEF730FC2EE0FFE700208449086029
:1025800014217C48FEF709FD18217A48FEF705FD65
:102590007F4802680068401C7D4B18607D48815C64
:1025A0007448FEF7B2FC01207B49086013E07348D1
:1025B0000068052101EB001070490860744802684A
:1025C0000068401C724B18607248815C6948FEF7D5
:1025D0009CFC00E000BF00BF10BD10B56548FEF7D1
:1025E00005FD044604F4806050B16448006806218B
:1025F00001EB00106149086068495E48FEF720FD64
:1026000010BD1CB501218805FEF7DCF80121022070
:10261000FEF7B6F801218805FEF707F900214FF40F
:102620008000FEF702F904220A215D48FDF709FF48
:1026300004220B215A48FDF704FF4FF480600090FC
:1026400002208DF8040003208DF8050001208DF88C
:10265000060000208DF8070069465148FDF774FE1A
:102660004FF40060009069464D48FDF76DFE1CBDBB
:1026700000B585B00220ADF804004BF6FF70ADF850
:1026800006004020ADF808000001ADF80A00000186
:10269000ADF80C004348009001213648FEF79BFB43
:1026A00001213448FEF703FC69463248FEF717FB68
:1026B00001213048FEF7B3FB21208DF810000020E7
:1026C0008DF8120001208DF811008DF8130004A878
:1026D000FDF787FD22208DF8100000208DF81200F4
:1026E0008DF8110001208DF8130004A8FDF779FD85
:1026F00001224FF4E0611F48FEF75AFC05B000BD0F
:1027000010B5002428480078002801DD002010BD05
:1027100001202549087000201A4908601C490860FA
:10272000FFF76FFFFFF7A4FF2046F0E770B5044600
:102730000D46002644B13DB10020154908602A46E7
:102740002146144803F00DFC304670BD70B50446B8
:102750000D4600265CB10B48006840B109480A49A3
:102760000268204603F0FDFB0648008828803046BA
:1027700070BD00000058004040000200E000002052
:10278000E8000020D8000020E40100201000001024
:10279000DC00002064020020E4000020000400109F
:1027A00000040240A0860100EC00002000B587B0C4
:1027B000FC48007808B107B000BD01214805FEF7CC
:1027C00001F801210220FDF7DBFF402005900220E7
:1027D0008DF818008DF8190001208DF81A000020DE
:1027E0008DF81B0004220621EF48FDF72AFE05A9FB
:1027F000ED48FDF7A9FD8020059004220721EA4855
:10280000FDF71FFE05A9E848FDF79EFDE748FEF726
:102810004DFA0020ADF808004BF6FF70ADF80A0045
:102820000020ADF80C004FF48060ADF80E00000100
:10283000ADF81000DE4801900121DC48FEF7CBFA2C
:1028400001A9DA48FEF74BFA0120D649087000BF0B
:10285000B1E71FB504460121D448FEF7D4FA01219F
:10286000D248FEF70BFB0021D048FEF707FBCF480C
:10287000FEF71CFA0020ADF804004BF6FF70ADF82F
:1028800006000020ADF808004FF48060ADF80A00A3
:102890000001ADF80C00C64800900121C348FEF7C6
:1028A0009AFA6946C148FEF71AFA012004B010BD31
:1028B0002DE9F8430446884616461F464FF00009A6
:1028C0000025BC4800906006040EBA48009008E05D
:1028D0000098411E009120B90120FFF7BAFFBDE822
:1028E000F8834FF40031B148FEF78DFB0028EFD19B
:1028F0000121AE48FEF77BFA4FF46170009007E0CB
:102900000098411E009118B90220FFF7A2FFE6E7E8
:10291000A949A648FEF777FB0128F1D100222146FC
:10292000A248FEF7EAFA4FF46170009007E00098C1
:10293000411E009118B90320FFF78BFFCFE79E4996
:10294000491C9A48FEF75FFB0128F0D114219748F3
:10295000FEF723FB18219548FEF71FFB4FF461702B
:10296000009007E00098411E009118B90420FFF77D
:1029700070FFB4E790497F318C48FEF744FB012893
:10298000F0D141468948FEF7C0FA002517E04FF420
:102990006170009007E00098411E009118B9052071
:1029A000FFF757FF9BE784497F318048FEF72BFBF9
:1029B0000128F0D1795D7D48FEF7A7FA6D1CB5427C
:1029C000E5D34FF46170009007E00098411E00913C
:1029D00018B90620FFF73DFF81E77749C91C734806
:1029E000FEF711FB0128F0D101217048FEF70BFA28
:1029F000484674E72DE9F8430746884616461C46C4
:102A00000025A9466B4800907806070E694800909B
:102A100008E00098411E009120B90720FFF719FF38
:102A2000BDE8F8834FF400316048FEF7ECFA002867
:102A3000EFD101215D48FEF7DAF94FF461700090A3
:102A400007E00098411E009118B90820FFF701FF28
:102A5000E6E759495548FEF7D6FA0128F1D1002298
:102A600039465248FEF749FA4FF46170009007E08A
:102A70000098411E009118B90920FFF7EAFECFE740
:102A80004D49491C4948FEF7BEFA0128F0D11421EE
:102A90004648FEF782FA18214448FEF77EFA4FF4C2
:102AA0006170009007E00098411E009118B90A205B
:102AB000FFF7CFFEB4E740497F313C48FEF7A3FA69
:102AC0000128F0D141463948FEF71FFA4FF46170F2
:102AD000009007E00098411E009118B90B20FFF705
:102AE000B8FE9DE734497F313048FEF78CFA012863
:102AF000F0D101212D48FEF77AF94FF46170009072
:102B000007E00098411E009118B90C20FFF7A1FEC4
:102B100086E729492548FEF776FA0128F1D10122F6
:102B200039462248FEF7E9F94FF46170009007E05A
:102B30000098411E009118B90D20FFF78AFE6FE73B
:102B40001D49491C1948FEF75EFA0128F0D1012EF3
:102B500034D100211548FEF762F914211348FEF71D
:102B60001CFA18211148FEF718FA01210F48FEF748
:102B70004AF94FF46170009007E00098411E0091FF
:102B800018B90E20FFF765FE4AE70B493F310748A9
:102B9000FEF739FA0128F0D10448FEF7B8F92070A1
:102BA000EBE00000ED000020000402400054004073
:102BB000801A0600B01E040001000010022E30D161
:102BC00000218448FEF72BF98248008840F4006019
:102BD0008049088014217F48FEF7DFF918217D48DD
:102BE000FEF7DBF94FF46170009007E00098411E9A
:102BF000009118B90F20FFF72CFE11E776497548B0
:102C0000FEF701FA0128F1D101217248FEF7FBF825
:102C10007048FEF77CF920706E48FEF778F9607016
:102C2000ABE0032E41D114216A48FEF7B6F9182112
:102C30006848FEF7B2F94FF46170009007E0009821
:102C4000411E009118B91020FFF703FEE8E6624923
:102C50006048FEF7D8F90128F1D100215D48FEF760
:102C6000DEF85C48FEF753F9207001215948FEF761
:102C7000CAF85848FEF74BF960704FF46170009045
:102C800007E00098411E009118B91120FFF7E1FDFF
:102C9000C6E651493C314F48FEF7B5F90128F0D15D
:102CA0004C48FEF734F9A07067E014214948FEF75C
:102CB00074F918214748FEF770F900255BE0F01E13
:102CC00080B2A8423FD14FF46170009007E00098B5
:102CD000411E009118B91020FFF7BBFDA0E63E4948
:102CE0003C48FEF790F90128F1D100213948FEF760
:102CF00096F83848FEF70BF929466D1C60540121FF
:102D00003448FEF780F83348FEF701F929466D1C78
:102D100060544FF46170009007E00098411E0091EC
:102D200018B91120FFF795FD7AE62B493C31294867
:102D3000FEF769F90128F0D12648FEF7E8F82946A0
:102D40006D1C60541AE04FF46170009007E0009829
:102D5000411E009118B91220FFF77BFD60E61E4965
:102D60003C311C48FEF74FF90128F0D11948FEF715
:102D7000CEF860556D1CB542A1D300BF1649154869
:102D8000FEF75EF91548009007E00098411E00919B
:102D900018B91320FFF75DFD42E64FF400310D48EE
:102DA000FEF731F90028F0D101210A48FEF737F883
:102DB0000848008820F400600649088048462FE64D
:102DC00010B500210348FEF706F8002004490870FA
:102DD00010BD00000054004004000010B01E0400AC
:102DE000ED00002070B504460D4616462B463246CF
:102DF00021460C20FFF75CFD70BD70B504460D4602
:102E000016462B46324621460C20FFF7F3FD70BDD7
:102E1000FEB504460020019002900A2637E0082201
:102E200001A91020FFF7E9FF05460DB12846FEBDB8
:102E30009DF8040000F00100C8B19DF805009DF860
:102E4000061040EA012000B220809DF807009DF89E
:102E5000081040EA012000B260809DF809009DF84A
:102E60000A1040EA012000B2A080002601E0701E96
:102E7000C6B201200090012269463120FFF7B2FF5F
:102E800005460DB12846D2E7012000F016FD002EC0
:102E9000C5DC0020CBE72DE9F04188B05E4903C9CD
:102EA000CDE903015C49083103C9CDE901010020E6
:102EB0000590012205A93120FFF794FF044604B1D3
:102EC0006CE0642000F0F9FC10200590012205A9B7
:102ED0003120FFF787FF044604B15FE00A2513E0C5
:102EE000012206A91020FFF788FF044604B155E02F
:102EF0009DF8180000F0010010B9681EC5B200E08E
:102F000000250A2000F0D9FC002DE9DC9DF818000E
:102F100000F0010010B94FF0FF343FE0062206A98F
:102F20001120FFF76AFF044604B137E09DF818004E
:102F30009DF8191040EA012006B29DF81A009DF88C
:102F40001B1040EA012007B29DF81C009DF81D10DF
:102F500040EA01200FFA80F84FF0FF34BDF9040079
:102F6000B04203DBBDF90C00B04200DD16E0BDF954
:102F70000600B84203DBBDF90E00B84200DD0DE0EB
:102F8000BDF90800404503DBBDF91000404500DDF8
:102F900004E00024642000F090FC00BF00200590B5
:102FA000012205A93120FFF71DFF204608B0BDE82A
:102FB000F08138B50020009002226946FFF71DFF1E
:102FC000044604B10AE09DF80000482805D19DF8A8
:102FD0000100092801D1012038BD00BF0020FBE716
:102FE00008B501200090012269463220FFF7FAFE61
:102FF00008BD38B50446002544B1012000900122E7
:1030000069463120FFF7EEFE054602E0FFF7E8FFD4
:103010000546284638BD0000207C000870B50446EF
:103020000D4616462B46324621467620FFF740FCD9
:1030300070BD70B504460D4616462B4632462146F5
:103040007620FFF7D7FC70BD08B5B62000900122AE
:103050006946E020FFF7E2FF08BD00B589B01821FE
:1030600003A802F0E5FF242002F028FFFE490860D3
:1030700001226946D020FFF7DCFF0A2000F01DFC8A
:103080000020F94909684877F7490968087701205D
:10309000F5490968C877F44909688877F2490968E9
:1030A00081F82000182203A98820FFF7C2FF0A2018
:1030B00000F003FC9DF80C009DF80D1040EA012083
:1030C000E949096808809DF80E009DF80F1040EA54
:1030D000012000B2E449096848809DF810009DF87D
:1030E000111040EA012000B2DF49096888809DF88C
:1030F00012009DF8131040EA0120DB490968C880DE
:103100009DF814009DF8151040EA012000B2D64940
:10311000096808819DF816009DF8171040EA012003
:1031200000B2D149096848819DF818009DF819102E
:1031300040EA012000B2CC49096888819DF81A0054
:103140009DF81B1040EA012000B2C7490968C881F8
:103150009DF81C009DF81D1040EA012000B2C249F4
:10316000096808829DF81E009DF81F1040EA0120A2
:1031700000B2BD49096848829DF820009DF82110E1
:1031800040EA012000B2B849096888829DF822000F
:103190009DF8231040EA012000B2B3490968C882B3
:1031A000FFF752FF3C2000F088FBAF480068807FAB
:1031B0004001AD490968C97F40EA8100AA49096810
:1031C000497F0843C0B20290A7480068007F4001D1
:1031D000A549096891F8201040EA8100C0B2019029
:1031E000012202A9F420FFF719FF322000F065FB4D
:1031F000012201A9F520FFF711FF322000F05DFB4D
:1032000009B000BD38B50446974800680477964871
:103210000068007F40019449096891F8201040EA55
:103220008100C0B2009001226946F520FFF7F6FE4A
:1032300038BD38B504468C48006844778A48006831
:10324000807F400188490968C97F40EA810086493A
:103250000968497F0843C0B2009001226946F42002
:10326000FFF7DCFE38BD38B504467F480068847738
:103270007D480068807F40017B490968C97F40EA3A
:10328000810079490968497F0843C0B20090012252
:103290006946F420FFF7C2FE38BD38B504467248CF
:1032A0000068847770480068807F40016E49096833
:1032B000C97F40EA81006C490968497F0843C0B270
:1032C000009001226946F420FFF7A8FE38BD38B50A
:1032D00004466548006880F8204063480068007F25
:1032E00040016149096891F8201040EA8100C0B2AC
:1032F000009001226946F520FFF790FE38BD2DE9C8
:10330000F14F8CB058490968B1F9020003F019FD7A
:10331000CDE9080154490968088803F029FD804671
:103320000022524B03F04AFBCDE904010C9803F054
:1033300008FD804600224E4B03F040FB8246DDE94B
:10334000042303F08BFFCDE90601DDE9082303F038
:103350005FFD04460D4644490968B1F9040003F0D5
:10336000F0FCCDE9080140490968088803F000FD38
:10337000804600223F4B03F021FB82468B460C988F
:1033800003F0DFFC804600224FF0824303F016FB7F
:1033900052465B46CDE9000103F060FFCDE9040130
:1033A00031490968088803F0E3FC80460022314B6C
:1033B00003F004FBCDE900010C9803F0C2FC804649
:1033C00000224FF0824303F0F9FA8246DDE9002340
:1033D00003F044FFCDE90201DDE9042303F018FD09
:1033E000CDE90601DDE9082303F012FD06460F468C
:1033F00032463B462046294603F024FA804603F035
:1034000071FC19490968886132463B4620462946C5
:1034100003F018FA80460022174B03F0CFFACDE9EB
:103420000A01DDE90A010DB0BDE8F08F2DE9F14F89
:103430008AB00D490968886903F083FC00224FF0C7
:103440008043CDE9080103F0B9FA824600220B4B14
:1034500003F004FF04460D4603490968B1F9100062
:1034600003F06FFC22460BE0F000002000009040CB
:103470000000D0400000C0400000B4400040EF40D9
:103480002B46CDE908012046294603F0C1FCCDE9D1
:103490000601DDE9082303F0BBFC82460022C24B93
:1034A00003F08CFA80468946C0490968B1F90E00DC
:1034B00003F047FC22462B46CDE9060103F0A8FCA9
:1034C00000224FF08043CDE9080103F0A1FC8246C1
:1034D00042464B4603F0B6F980468946B34909682F
:1034E000B1F90C0003F02DFC0022B14BCDE906012F
:1034F00003F08EFC82468B460022AE4B4046494686
:1035000003F05CFA52465B46CDE9080103F09AF9F4
:1035100080468946A5490968B1F9080003F011FC05
:10352000824622462B4603F073FCCDE906019F49F3
:103530000968B1F90A0003F004FC22462B46CDE9E4
:10354000000103F065FC824622462B4603F060FC36
:103550000022994BCDE9020103F030FACDE90401D4
:10356000DDE9062303F06EF90022934BCDE9080153
:1035700003F024FA04460D468C490968C88803F014
:10358000F7FB0022884BCDE908012046294603F0CD
:1035900015FA82460022894B03F054F9CDE9060161
:1035A000DDE9082303F034FC04460D4600221346EF
:1035B0002046294603F05AFB04D1002001460BB0F7
:1035C000BDE8F08F0A9803F0BCFB824600227C4BDA
:1035D00003F052FD06460F4600227A4B404649460C
:1035E00003F0ECF932463B46CDE9060103F044FD19
:1035F0000022754BCDE9080103F00AFC8246224601
:103600002B4603F0DBF906460F4668490968B1F915
:10361000160003F096FB32463B46CDE9060103F067
:10362000F7FB824632463B4603F0F2FB0022674B33
:10363000CDE9080103F0C2F904460D465B4909686B
:10364000B1F9140003F07DFB32463B46CDE9080199
:1036500003F0DEFB82460022534B03F0AFF98046B5
:10366000894652490968B1F9120003F06AFB8246A3
:103670008B4642464B462046294603F0E3F8524625
:103680005B46CDE9040103F0DDF80022504BCDE9A3
:10369000060103F093F932463B46CDE9080103F0F9
:1036A000D1F806460F463046394688E7FEB5012276
:1036B0006946FC20FFF7BDFC012202A9FB20FFF7B1
:1036C000B8FC012201A9FA20FFF7B3FC9DF8040021
:1036D00000039DF8081040EA01109DF8001040EA30
:1036E00021142046FFF70BFE05460E4628463146BC
:1036F00003B0F0BDFEB501226946F920FFF799FC41
:10370000082000F0DAF8012202A9F820FFF791FC66
:10371000082000F0D2F8012201A9F720FFF789FC68
:10372000082000F0CAF89DF8040000039DF8081076
:1037300040EA01109DF8001040EA21142046FFF7EE
:1037400075FE05460E462846314603B0F0BD70B5FD
:1037500005460C46FFF7AAFFC5E90001FFF7CAFFBF
:10376000C4E9000170BD70B504460D4629462046E7
:10377000FFF7EDFF022000F0A0F80120FFF759FD50
:1037800070BD70B504460D46FFF767FC074800683A
:1037900040B106E029462046FFF7E5FF642000F02F
:1037A0008CF8F7E770BD00000000E040F00000205A
:1037B0000000F04000001040000020410000F03FF9
:1037C000000030410000B040006AB8400000E04115
:1037D000000030401CB56846FDF7DFFC4FF6FF7077
:1037E000ADF804000020ADF80000ADF80600ADF81B
:1037F000020069463848FDF7ADFC01213648FEF766
:103800005CF81CBD10B53548007820B9FFF7E2FF21
:1038100001203249087001210220FCF7D3FF00206B
:103820002D492431088001212B48FDF70AFD10BDE8
:1038300010B500212848FDF704FD00210220FCF707
:10384000C1FF10BD10B50146234C2434238800224B
:1038500000BF214C24342088904202D24FF6FF74DE
:1038600020440246C41A8C42F3D910BD70B50446F8
:1038700064204443FFF7C6FF4FF6FF70844216D31F
:10388000002504E04FF6FF70FFF7DCFF6D1C4FF6DC
:10389000FF70B4FBF0F0A842F4D84FF6FF70B4FB11
:1038A000F0F100FB11463046FFF7CCFF02E0A0B27A
:1038B000FFF7C8FFFFF7BCFF70BD10B504464FF41B
:1038C0007A7104FB01F0FFF7D1FF10BD00BF0100CA
:1038D000A0F10100FBD1704700040040F40000207B
:1038E00070B504460D4616462B4632462146232027
:1038F000FEF7DEFF70BD70B504460D4616462B463A
:10390000324621462320FFF775F870BD08B5A84858
:1039100000788DF80000012269469220FFF7E0FF51
:10392000A3480088000A8DF8000001226946932010
:10393000FFF7D6FF9F4800788DF800000122694606
:103940009020FFF7CDFF9B480088000A8DF800000B
:10395000022269469120FFF7C3FF08BD38B5022057
:103960008DF80000012269468020FFF7B9FF64202E
:10397000FFF7A3FF7F208DF8000001226946822017
:10398000FFF7AEFF06208DF8000001226946832074
:10399000FFF7A6FF00208DF8000001226946842071
:1039A000FFF79EFF01208DF8000001226946852067
:1039B000FFF796FF08208049087000208DF800006E
:1039C000012269468F20FFF78BFF40208DF8000011
:1039D000012269469E20FFF783FF1420FFF76DFF49
:1039E00000208DF80000012269468C20FFF783FF3C
:1039F0004FF0FF349DF8000000F0020000B10024F9
:103A0000204638BD38B50446012269468120FFF7BB
:103A100072FF012C02D12B20009004E09DF80000E1
:103A200000F0FC000090012269468120FFF758FF5A
:103A30000A20FFF742FF38BD38B504460020009049
:103A4000012269468020FFF756FF012C02D10D208C
:103A5000009004E09DF8000000F0FE0000900122BC
:103A600069468020FFF73CFF0A20FFF726FF38BD9C
:103A70007CB50446012201A98D20FFF73CFF0122FD
:103A800069468E20FFF737FF9DF8000000F0070021
:103A90009DF8041001EB002525807CBD2DE9FF4732
:103AA00080464FF0010900BF012203A98A20FFF7D9
:103AB00022FF012202A98B20FFF71DFF9DF80800BD
:103AC0009DF80C1001EB002085B2012201A988208D
:103AD000FFF711FF012269468920FFF70CFF9DF8CF
:103AE00000009DF8041001EB002084B204B10DB970
:103AF000642604E064206043291990FBF1F62D2E22
:103B000010DA44F24F50684342F6333101FB0400AF
:103B1000294991F9001090FBF1F04FF47A7190FB74
:103B2000F1F733E0402E12DA2D2E10DB4AF221702D
:103B3000684344F65C4101FB14001F4991F90010F1
:103B400090FBF1F04FF47A7190FBF1F71EE0552EE7
:103B500012DA402E10DB41F22670684340F2A14198
:103B600001FB0400144991F9001090FBF1F04FF4AF
:103B70007A7190FBF1F709E0B9F1010F05D14FF02F
:103B800000090220FFF799FE8EE70027C8F80070B1
:103B9000BDE8FF8701460020B1F5487F01DD052023
:103BA00005E0B1F52F7F01DA002000E0002070472A
:103BB000FA000020F8000020F600002010B54FF4B5
:103BC0008060FDF759F818B14FF48060FDF765F893
:103BD0004FF48050FDF750F818B14FF48050FDF7C6
:103BE0005CF84FF40040FDF747F828B10120234965
:103BF0000870C003FDF751F810BD00B585B0012174
:103C00000220FCF7BDFD00208DF8100002208DF889
:103C1000110000208DF8120001208DF81300C00360
:103C2000039003A91648FCF78FFB01210846FCF717
:103C3000B8FD28208DF8000000208DF801000A2032
:103C40008DF8020001208DF803006846FCF7C9FAE0
:103C50000F210120FCF792FE4FF40040019001205B
:103C60008DF80A0000208DF8080008208DF8090062
:103C700001A8FCF79BFF05B000BD0000FD0000207F
:103C8000000402402DE9F04107460C4615461E4649
:103C900033462A4621466820FEF70AFEBDE8F08139
:103CA0002DE9F04107460C4615461E4633462A4686
:103CB00021466820FEF79EFEBDE8F08138B5044637
:103CC000FD48007B10B94FF0FF3038BD24B1FA48F1
:103CD000C07C08B10020F8E714B10120009001E099
:103CE00000200090F44A1268117DF34A526810785F
:103CF0006B460122FFF7C6FF10B14FF0FF30E4E73B
:103D00009DF80010EC48C1740020DEE708B5EA4ACF
:103D100012681178E84A526810786B460122FFF762
:103D2000B1FF10B14FF0FF3008BD0120FCE738B5FE
:103D3000002419E0E0480068007CA04204D0DE487E
:103D40000068C07EA04200D10CE0DB4949680878D9
:103D50006B4601222146FFF7A3FF10B14FF0FF3061
:103D600038BD00BF601CC4B2D34840680079A0428F
:103D7000E0DC0020F4E770B504460D46CE4800684C
:103D8000007CA04204D0CC480068C07EA04202D192
:103D90004FF0FF3070BDC84840680079A04202DC97
:103DA0004FF0FF30F6E7C449496808782B460122F6
:103DB0002146FFF775FFEDE738B50446BE4890F899
:103DC0002500A04201D1002038BD14B13020009060
:103DD00001E000200090B848007D20B19DF800006F
:103DE00040F002000090B44890F8240020B19DF803
:103DF000000040F080000090AF4A1268917EAE4A09
:103E0000526810786B460122FFF73CFF10B14FF06B
:103E1000FF30D9E7A84880F825400020D4E738B51E
:103E2000044604F0700010B10120009005E014B1C8
:103E30000020009001E0402000909F4A1268117E0F
:103E40009D4A526810786B460122FFF71BFF20B194
:103E5000002199480173481E38BD9DF8000020F0EC
:103E600040019548C1730020009004F0400020B943
:103E70009DF8000040F00400009004F0200020B9FC
:103E80009DF8000040F00200009004F0100020B9FE
:103E90009DF8000040F00100009004F0080020B9F7
:103EA0009DF8000040F038000090834A1268517E6F
:103EB000814A526810786B460122FFF7E3FE20B179
:103EC00000217D480173481EC6E724B1082C02D0AA
:103ED0000020FFF771FF78480473002141753220FC
:103EE000FFF7EBFC0020B7E738B504467248007DC9
:103EF000A04201D1002038BD002C46D06E4A126885
:103F0000D1796D4A526810786B460122FFF7C8FEDE
:103F100010B14FF0FF30EEE79DF8000020F02000D8
:103F20000090654A1268D179634A526810786B46EE
:103F30000122FFF7A7FE10B14FF0FF30DBE70320AF
:103F4000FFF7BBFC022000905B4890F8240020B1F2
:103F50009DF8000040F080000090574890F8250040
:103F600020B19DF8000040F030000090524A1268E5
:103F7000917E514A526810786B460122FFF782FE0B
:103F8000002851D04FF0FF30B5E74B4A1268D17985
:103F9000494A526810786B460122FFF781FE10B142
:103FA0004FF0FF30A7E74448007B00F0010028B144
:103FB0009DF8000040F02000009004E09DF8000013
:103FC00020F0200000903C4A1268D1793A4A5268A9
:103FD00010786B460122FFF755FE10B14FF0FF300D
:103FE00089E70320FFF769FC334890F8240010B1FB
:103FF0008020009001E0002000902F4890F82500DC
:1040000020B19DF8000040F0300000902A4A12686C
:10401000917E294A526810786B460122FFF732FEE2
:1040200010B14FF0FF3066E723480475002062E7C7
:1040300008B52148007B10B94FF0FF3008BD0020C3
:1040400000901D4A1268117D1B4A526810786B4619
:104050000122FFF717FE10B14FF0FF30EEE7164ACE
:104060001268117A144A526810786B460122FFF7E1
:1040700009FE10B14FF0FF30E0E70F4A1268D17926
:104080000D4A526810786B460122FFF7FBFD10B114
:104090004FF0FF30D2E704200090074A1268D17930
:1040A000054A526810786B460122FFF7EBFD28B1F4
:1040B0004FF0FF30C2E7000064010020FC48007DA3
:1040C00020B9FB48007B00F0010010B940200090AF
:1040D00001E060200090F64A1268D179F44A5268F3
:1040E00010786B460122FFF7CDFD10B14FF0FF3085
:1040F000A4E73220FFF7E1FBED48C07C10B10120BE
:10410000009001E000200090E94A1268117DE84A21
:10411000526810786B460122FFF7B4FD10B14FF0E2
:10412000FF308BE7E24A1268117AE14A5268107850
:10413000DF4B12330122FFF7A5FD10B14FF0FF3026
:104140007CE700207AE770B504460026D848007B5B
:1041500008B9701E70BDD648857C007B2040D449CC
:1041600088740846807CA04202D04FF0FF3600E001
:10417000002614B9CE48407D18B10120FFF79EFDFE
:1041800002E00020FFF79AFD3CB1FFF751FF20B19C
:10419000C74885744FF0FF30DCE73046DAE738B5C2
:1041A0000546C348007B10B94FF0FF3038BD15BB42
:1041B000BF4A1268D17ABE4A526810786B46012213
:1041C000FFF76EFD10B14FF0FF30EFE79DF80000F4
:1041D00040F008000090B64A1268D17AB44A52689A
:1041E00010786B460122FFF74DFD10B14FF0FF3004
:1041F000DCE70020DAE7AE4A1268D17AAC4A5268AE
:1042000010786B460122FFF74BFD10B14FF0FF30E5
:10421000CCE79DF8000020F00F000090DA2D01DBC4
:10422000002412E0BC2D01DB02240EE02A2D01DB6C
:1042300003240AE0142D01DB042406E00A2D01DB2F
:10424000052402E0052D00DB06249948807BA0426E
:1042500001D10020AAE79DF8000020430090944A75
:104260001268D17A924A526810786B460122FFF7A1
:1042700009FD10B14FF0FF3098E78D48847300209E
:1042800094E71CB504468A48007B10B94FF0FF3014
:104290001CBD14BB864A1268517A854A5268107850
:1042A0006B460122FFF7FCFC10B14FF0FF30EFE747
:1042B0009DF8000040F0010000907D4A1268517A9C
:1042C0007B4A526810786B460122FFF7DBFC10B185
:1042D0004FF0FF30DCE70020DAE7754A1268517AC8
:1042E000734A526810786B460122FFF7D9FC10B16F
:1042F0004FF0FF30CCE79DF8000020F00100009067
:104300006B4A1268517A6A4A526810786B460122E9
:10431000FFF7B8FC10B14FF0FF30B9E7FA2C02DB21
:10432000002001901CE0B02C02DB0120019017E07E
:104330005C2C02DB0220019012E0292C02DB03201E
:1043400001900DE0142C02DB0420019008E00A2CFF
:1043500002DB0520019003E0052C01DB0620019023
:104360005348407B9DF80410884201D100208FE71C
:104370004F4A126891784E4A5268107801AB012278
:10438000FFF780FC10B14FF0FF3081E79DF804107B
:104390004748417300207BE738B504464448007B1A
:1043A00010B94FF0FF3038BD022C06D0042C07D0D6
:1043B000082C08D0102C0CD108E0002000900BE055
:1043C0000820009008E01020009005E018200090E0
:1043D00002E04FF0FF30E6E700BF3548407A9DF835
:1043E0000010B0EBE10F01D10020DCE7304A126889
:1043F000917A2F4A526810786B460122FFF742FCEF
:1044000010B14FF0FF30CEE79DF80000C1102848F2
:1044100041720020C7E738B505462548007B10B932
:104420004FF0FF3038BD224A1268517A204A526854
:1044300010786B460122FFF733FC10B14FF0FF30CC
:10444000F0E79DF8000000F001000090FA2D09D07F
:10445000B5F5FA7F08D0B5F57A7F07D0B5F5FA6FD4
:1044600008D105E0002408E0082406E0102404E058
:10447000182402E04FF0FF30D4E700BF0C48007A68
:10448000B0EBE40F01D10020CCE79DF80000204301
:104490000090074A1268517A054A526810786B46B4
:1044A0000122FFF7EFFB28B14FF0FF30BAE7000021
:1044B00064010020E010FD4908720020B2E70146C7
:1044C000FA48807C0870002070470146F748008A4F
:1044D0000880002070470146F448807B08281BD2E2
:1044E000DFE800F0041A070A0D101316DA2008801E
:1044F00015E06320088012E02D2008800FE01520D1
:1045000008800CE00A20088009E00520088006E009
:104510004FF4D270088002E00020088000BF00BF86
:10452000002070470146E148407B08281ED2DFE8A2
:1045300000F004070A0D10131619FA20088018E07D
:10454000B020088015E05C20088012E02920088057
:104550000FE0142008800CE00A20088009E0052004
:10456000088006E04FF44860088002E000200880E0
:1045700000BF00BF002070470146CC48407A30B1F0
:10458000012807D0022808D003280CD108E0022017
:1045900008700BE00420087008E00820087005E0AF
:1045A0001020087002E04FF0FF30704700BF00207D
:1045B000FBE70146BD48007A30B1012807D0022848
:1045C00009D003280FD10AE0FA2008800EE04FF44A
:1045D000FA7008800AE04FF47A70088006E04FF421
:1045E000FA60088002E00020088000BF00BF0020C1
:1045F000704738B50446002C75D0B4F5207F02DD35
:104600004FF0FF3038BDA948407DD0B9A7481830D9
:10461000FFF7CFFFA5481A30FFF7AEFFA3481C30C5
:10462000FFF780FFA1481E30FFF755FF9F4820305D
:10463000FFF74BFF9D48017B80F822102330FFF7E6
:104640003EFF012C03D102208DF8000033E0022C44
:1046500003D103208DF800002DE0052C03DC04209D
:104660008DF8000027E00A2C03DC05208DF80000FF
:1046700021E0142C03DC06208DF800001BE0282C20
:1046800003DC07208DF8000015E0502C03DC082027
:104690008DF800000FE0A02C03DC09208DF800004D
:1046A00009E0B4F5A07F03DC0A208DF8000002E0E9
:1046B0000B208DF800007D4A1268117B7B4A5268FE
:1046C00010786B460122FFF7DDFA00B13DE0774A32
:1046D0001268D17A754A526810786B460122FFF74A
:1046E000DFFA08B131E02FE09DF8000040F0C8008B
:1046F0008DF800006D4A1268D17A6C4A52681078C1
:104700006B460122FFF7BEFA00B11EE020208DF8B3
:10471000000007208DF80100644A1268117E634A88
:10472000526810786B460122FFF7ACFA00B10CE03A
:1047300008215E4801730021C173012141750020E9
:10474000FFF701FD00205DE700BFFF205749087219
:10475000FF2156484172417381734FF6FF71018208
:10476000FF21017381740121C173014691F8220078
:10477000FFF755FB4D49088BFFF74DFE4B49887EEF
:10478000FFF70AFE4949888BFFF77BFD4749C88B35
:10479000FFF705FD4549088C00F007F8434991F8FB
:1047A0002300FFF7D0FC00202CE738B504463F4833
:1047B000007B10B94FF0FF3038BD3C48407D50B110
:1047C00034B1282C04DC2046FFF713FF0020F3E768
:1047D0000020FFF70EFF042C01DA042404E0B4F5F6
:1047E0007A7F01DD4FF47A744FF47A7090FBF4F025
:1047F000401EC0B200902D4A126851782B4A526870
:1048000010786B460122FFF73DFA10B14FF0FF30F0
:10481000D2E79DF80000401C4FF47A7191FBF0F054
:1048200081B2224801820146098A4810FFF729FD1A
:104830001E49098A4810FFF7B2FC0020BCE71CB5EE
:1048400080208DF80000194A1268117E174A5268BC
:1048500010786B460122FFF715FA10B14FF0FF30C8
:104860001CBD6420FFF729F800208DF800000F4AD6
:104870001268117E0D4A526810786B460122FFF7CC
:1048800001FA10B14FF0FF30EAE7C0208DF80000C8
:10489000064A1268D17A054A526810786B4601229E
:1048A000FFF7F0F920B14FF0FF30D9E764010020A5
:1048B000FF21FB480173FF20F9490872FF21F848E6
:1048C0004172417381734FF6FF710182FF21817440
:1048D00001750121C17380F82410002180F8251092
:1048E000817541758161C16101624FF4FA60FFF722
:1048F00092FD10B14FF0FF30B2E70220FFF74CFD00
:1049000010B14FF0FF30ABE73220FFF7BAFC10B127
:104910004FF0FF30A4E73220FFF741FC10B14FF019
:10492000FF309DE73220FFF740FF10B14FF0FF301E
:1049300096E70020FFF707FC10B14FF0FF308FE73C
:104940000020FFF7D1FA10B14FF0FF3088E70020C8
:10495000FFF765FA002083E738B50546D048007BAD
:1049600010B94FF0FF3038BDCD4A1268117BCC4AE8
:10497000526810786B460122FFF792F910B14FF0A0
:10498000FF30F0E79DF8000020F070000090082D47
:1049900013D2DFE805F0040612080A0C0E100024FA
:1049A0000EE010240CE030240AE0402408E05024FB
:1049B00006E0602404E0702402E04FF0FF30D2E70C
:1049C00000BFB748807AB0EB241F01D10020CAE7AE
:1049D0009DF8000020430090B14A1268117BB04A54
:1049E000526810786B460122FFF74CF910B14FF076
:1049F000FF30B8E72111AA4881720020B3E738B52B
:104A000004460D46A0B2FFF7A7FF10B14FF0FF30EC
:104A100038BDA34A1268117BA14A526810786B46D0
:104A20000122FFF73DF910B14FF0FF30F0E72DB153
:104A30009DF8000040F08000009004E09DF8000028
:104A400020F080000090964A1268117B944A5268C8
:104A500010786B460122FFF715F910B14FF0FF30C7
:104A6000D6E70020D4E77CB504460D468C48007B91
:104A700000F0700010B94FF0FF307CBD884A12681A
:104A8000517C874A526810786B460622FFF708F976
:104A900010B14FF0FF30F0E79DF801009DF80010D5
:104AA00040EA012000B220809DF803009DF802102A
:104AB00040EA012000B260809DF805009DF80410D6
:104AC00040EA012000B2A0800020D6E77CB5044671
:104AD0000D467348007B00F0080010B94FF0FF301E
:104AE0007CBD6F4A1268917C6D4A526810786B46A3
:104AF0000622FFF7D5F810B14FF0FF30F0E79DF830
:104B000001009DF8001040EA012000B220809DF8CD
:104B100003009DF8021040EA012000B260809DF879
:104B200005009DF8041040EA012000B2A08000209A
:104B3000D6E72DE9FC5F04465948007B18B94FF0D1
:104B4000FF30BDE8FC9F564A1268D17C544A526837
:104B5000107801AB0222FFF7A3F810B14FF0FF303D
:104B6000EFE79DF805009DF8041040EA012005B22A
:104B70004B494968C88802F01FFE82464849496887
:104B8000B1F9080002F000FE8346284602F0FCFD61
:104B90005946009002F056FF8146514602F0E2FC71
:104BA0008046404902F070FC07464FF08F4102F00A
:104BB0004BFE064602F0CCFD20600020C1E71CB58C
:104BC0000446374A1268117F354A526810786B469E
:104BD0000222FFF765F810B14FF0FF301CBD304ADC
:104BE0001268517F2E4A526810780DF1020302229A
:104BF000FFF756F810B14FF0FF30EFE7284A126880
:104C0000917F274A5268107801AB0222FFF748F8DB
:104C100010B14FF0FF30E1E79DF801009DF8001062
:104C200040EA012020609DF803009DF8021040EA50
:104C3000012060609DF805009DF8041040EA012005
:104C4000A0600020CAE71CB50446154A1268117915
:104C5000134A526810786B460222FFF721F810B110
:104C60004FF0FF301CBD0E4A126851790C4A526851
:104C700010780DF102030222FFF712F810B14FF085
:104C8000FF30EFE7064A12689179054A52681078BA
:104C900001AB0222FFF704F830B14FF0FF30E1E73B
:104CA0006401002000000C429DF801009DF80010F6
:104CB00040EA012020609DF803009DF8021040EAC0
:104CC000012060609DF805009DF8041040EA012075
:104CD000A0600020C6E77CB504460020009001904B
:104CE000002500BF05E054F82500404244F82500A7
:104CF0006D1C032DF7DB2088000A8DF8000020785A
:104D00008DF80100A088000A8DF8020020798DF846
:104D100003002089000A8DF80400207A8DF8050030
:104D2000FA4A12681179F94A526810786B460222E1
:104D3000FEF7A8FF10B14FF0FF307CBDF34A1268B8
:104D40005179F24A526810780DF102030222FEF7FF
:104D500099FF10B14FF0FF30EFE7EC4A12689179FC
:104D6000EA4A5268107801AB0222FEF78BFF10B1BD
:104D70004FF0FF30E1E70020DFE710B586B00446D2
:104D800000200490059001900290039001A8FFF785
:104D900016FF18B14FF0FF3006B010BD0198216822
:104DA00021F00101401A01900298616821F001018F
:104DB000401A02900398A16821F00101401A039063
:104DC0000198000A8DF810000198C0B28DF811000A
:104DD0000298000A8DF812000298C0B28DF81300F4
:104DE0000398000A8DF814000398C0B28DF81500DE
:104DF000C64A1268117FC54A5268107804AB022275
:104E0000FEF740FF10B14FF0FF30C5E7BF4A126810
:104E1000517FBE4A526810780DF112030222FEF74C
:104E200031FF10B14FF0FF30B6E7B84A1268917FFA
:104E3000B64A5268107805AB0222FEF723FF10B184
:104E40004FF0FF30A8E70020A6E70146AF48807A80
:104E500008281AD2DFE800F00407190A0D1013160B
:104E60000120088014E00220088011E0082008805A
:104E70000EE0102008800BE02020088008E0402091
:104E8000088005E08020088002E00020088000BF44
:104E900000BF0020704701469C48C07A30B101280D
:104EA00007D0022808D003280CD108E0042008808D
:104EB0000BE00820088008E01020088005E0202092
:104EC000088002E00020088000BF00BF002070477B
:104ED00038B505468D48007B10B94FF0FF3038BD1E
:104EE0008A4A1268D17A894A526810786B46012240
:104EF000FEF7D6FE10B14FF0FF30F0E79DF800004E
:104F000020F03000009035B1012D06D0022D06D0E2
:104F1000032D08D105E0002408E0102406E0202439
:104F200004E0302402E04FF0FF30D8E700BF7748BC
:104F3000C07AB0EB241F01D10020D0E79DF800001B
:104F400020430090714A1268D17A704A52681078F2
:104F50006B460122FEF796FE10B14FF0FF30BEE720
:104F600021116A48C1720020B9E710B50446674AAA
:104F7000126892F82310654A52681078234601227D
:104F8000FEF78EFE10B14FF0FF3010BD0020FCE7A1
:104F900001B55E4A126892F823105C4A5268107894
:104FA0006B460122FEF76EFE10B14FF0FF3008BDD8
:104FB0000020FCE701465548007A30B1012807D0AF
:104FC000022808D003280CD108E0514808600BE003
:104FD0005048086008E05048086005E04F48086005
:104FE00002E04FF0FF30704700BF0020FBE70146B2
:104FF0004648407A30B1012808D002280AD0032858
:1050000010D10BE04FF4804008800EE04FF40050C8
:1050100008800AE04FF48050088006E04FF40060FA
:10502000088002E04FF0FF30704700BF0020FBE730
:1050300001463648007B10B10120087001E00020D5
:1050400008700020704738B504463048007B10B91E
:105050004FF0FF3038BD2D4A1268517D2B4A5268FF
:1050600010786B460222FEF71BFE10B14FF0FF30A6
:10507000F0E79DF801009DF8001040EA012000B221
:1050800020800020E6E72DE9FE4F0746884693463C
:105090001D46DDF830A000260024002028700C26D4
:1050A0001A4A1268D17B194A526810786B4602225C
:1050B000FEF7F6FD10B1601EBDE8FE8F9DF8010001
:1050C0009DF8001040EA0129B14501DA0020F3E71C
:1050D0000E4840684088B9EB600F21DD0B4A12682A
:1050E000917D0A4A526810786B460122FEF7D8FD7E
:1050F00010B14FF0FF30DFE79DF8000000F0100026
:1051000070B1FEF795FF6FF00100D5E76401002054
:1051100000000343000083423333034233338341AF
:10512000FE4A1268117CFD4A526810786B4632467E
:10513000FEF7B6FD10B14FF0FF30BDE799FBF6F07A
:10514000401E8AF8000000202870B4422AD0F3489C
:10515000807C00F0080028B3601C1DF800001DF8DA
:10516000041040EA012000B2A8F80000E01C1DF87D
:105170000010A01C1DF8000041EA002000B2A8F8B1
:105180000200601D1DF80010201D1DF8000041EAFE
:10519000002000B2A8F80400287840F00800287029
:1051A000A01D84B2B44213D0DC48807C00F04000E3
:1051B00070B1601C1DF800001DF8041040EA0120C9
:1051C00000B23880287840F040002870A01C84B2DB
:1051D000B44213D0D148807C00F0200070B1601C34
:1051E0001DF800001DF8041040EA012000B278808C
:1051F000287840F020002870A01C84B2B44213D05C
:10520000C648807C00F0100070B1601C1DF80000E2
:105210001DF8041040EA012000B2B880287840F060
:1052200010002870A01C84B2002045E70146BB484E
:1052300080F82410002070472DE9F04F8FB006460B
:105240008946002500200E90B4494968087801ABD2
:1052500003220D21FEF724FD18B107200FB0BDE891
:10526000F08F00242CE001A8005D10B301A9095DB6
:10527000491EAB4A32F8110002F09EFA03A941F828
:10528000240051F824004FF08F4102F0DDFA03A909
:1052900041F82400A349486802F08EFA074603A9A2
:1052A00051F82400394602F05DF903A941F82400C1
:1052B00005E0002003A941F8240001200E90641CA1
:1052C000032CD0DB0E98A8BB002430E059F8241042
:1052D00056F82420881A02F057FA09A941F8240048
:1052E00003AA52F8241009AA52F8240002F03AF94D
:1052F00007464FF07E5102F0A5FB06A941F82400B5
:105300008849486A02F094F80746884606A951F889
:10531000240002F08DF821F0004182463A464346CF
:1053200001F074FE02D20120A0400543641C032C4E
:10533000CCDB2DE0FFE77B49C8694FF08F4102F0DD
:1053400083FA0D907749086A4FF08F4102F07CFA9A
:105350000C9000241AE059F8241056F82420881ADA
:1053600002F012FA09A941F8240051F824000D991D
:1053700002F036FA06D309A951F824000C9902F07C
:105380002FFB02D20120A0400543641C032CE2DB6A
:10539000FDB96449886A4FF08F4102F055FA0290D6
:1053A000002414E0029802F043F80746884656F8B5
:1053B000240001F0C6FC21F0004182463A464346F3
:1053C00001F024FE02D20120A0400543641C032CFE
:1053D000E8DB284642E72DE9F04F8DB006468946C6
:1053E000002500200C904D49496808786B4603223F
:1053F0000021FEF755FC18B107200DB0BDE8F08F75
:1054000000242CE01DF8040010B31DF80410491E00
:10541000434A32F8110002F0CFF902A941F8240002
:1054200051F824004FF08F4102F00EFA02A941F822
:1054300024003C49086802F0BFF9074602A951F868
:105440002400394602F08EF802A941F8240005E054
:10545000002002A941F8240001200C90641C032CB8
:10546000D0DB0C9880BB00242BE059F8241056F8B0
:105470002420881A02F088F908A941F8240002AA19
:1054800052F8241008AA52F8240002F06BF805A97B
:1054900041F824002349886901F0CAFF074688467D
:1054A00005A951F8240001F0C3FF21F00041824614
:1054B0003A46434601F070FC02D20120A040054369
:1054C000641C032CD1DB1FE0FFE7164948694FF04D
:1054D0008F4102F0B9F90B90002413E059F8241021
:1054E00056F82420881A02F04FF908A941F8240040
:1054F00051F824000B9902F073F902D20120A04068
:105500000543641C032CE9DB2DBB064908694FF0F9
:105510008F4102F099F9019000241AE06401002003
:105520002E7C000834010020019801F081FF8246A2
:105530008B4656F8240001F004FC21F00041074698
:1055400052465B4601F062FD02D20120A0400543B5
:10555000641C032CE8DB28464FE72DE9F04FADF53E
:10556000057D05460C46914600260020049001204A
:105570008DF8140000208DF81500FE4A1268117E87
:10558000FC4A5268107805AB0222FEF77BFB20B183
:10559000701E0DF5057DBDE8F08FC820FEF78DF972
:1055A00000208DF81400F34A1268117DF14A526808
:1055B000107805AB0122FEF765FB10B14FF0FF300C
:1055C000E7E7EC4A1268117AEA4A5268107805ABAC
:1055D0000122FEF757FB10B14FF0FF30D9E7E54A43
:1055E0001268117EE34A5268107805AB0122FEF77B
:1055F00049FB10B14FF0FF30CBE7DE4A1268D17F94
:10560000DC4A5268107805AB0122FEF73BFB10B173
:105610004FF0FF30BDE7D74A1268D179D54A5268BA
:10562000107805AB0122FEF72DFB10B14FF0FF30D3
:10563000AFE70C208DF81400CE4A1268D179CD4A1C
:105640005268107805AB0122FEF71CFB10B14FF039
:10565000FF309EE70F20FEF730F9C648806A407A97
:105660008DF81400C34A12689178C24A52681078C3
:1056700005AB0122FEF706FB10B14FF0FF3088E7C3
:10568000BC48806A007A8DF81400BA4A12685178D2
:10569000B84A5268107805AB0122FEF7F3FA10B150
:1056A0004FF0FF3075E7B9F1000F07D0B148806ABD
:1056B000807A40F0E0008DF8140004E0AD48806A84
:1056C000807A8DF81400AB4A1268517AA94A526860
:1056D000107805AB0122FEF7D5FA10B14FF0FF307C
:1056E00057E7B9F1000F07D0A248806AC07A40F0AE
:1056F000E0008DF8140003E09F48C07A8DF8140094
:105700009C4A1268917A9B4A5268107805AB012234
:10571000FEF7B8FA10B14FF0FF303AE796498889A2
:10572000FEF7CBF840208DF81400924A1268D17928
:10573000904A5268107805AB0122FEF7A3FA10B127
:105740004FF0FF3025E778208DF81400894A126861
:10575000117A884A5268107805AB0122FEF792FA56
:1057600010B14FF0FF3014E70020A8606860286097
:10577000A06060602060A0E07F49888DFEF79DF802
:105780007C4A1268D17B7B4A5268107805AB0222B2
:10579000FEF786FA10B14FF0FF30FAE69DF81500DB
:1057A0009DF8141040EA012B0C209BFBF0F000F058
:1057B000FF087148807B801B404504DA6E48807B7F
:1057C000801B00F0FF0808EB480083000493049B53
:1057D0009AB2684B1B68197C664B5B68187805ABFE
:1057E000FEF75EFA10B14FF0FF30D2E60027BA465E
:1057F00060E005A9781C085CC95D40EA012000B2A0
:10580000ADF8080005A9F81C095C05AAB81C105CD5
:1058100041EA002000B2ADF80A0005A9781D095C34
:10582000381D105C41EA002000B2ADF80C00BDF953
:105830000810206808442060BDF90A106068084418
:105840006060BDF90C10A0680844A06005A9F81DAF
:10585000095CB81D105C41EA002000B2ADF8000000
:1058600005A907F10900095C401E105C41EA00200F
:1058700000B2ADF8020005A907F10B00095C401E5B
:10588000105C41EA002000B2ADF80400BDF9001040
:10589000286808442860BDF90210686808446860F8
:1058A000BDF90410A8680844A8600C370AF101008B
:1058B00000F0FF0AC2459CDB46442F48807BB04283
:1058C0003FF75AAF00208DF814002A4A1268117A67
:1058D000284A5268107805AB0122FEF7D3F910B1BF
:1058E0004FF0FF3055E62448D0F800C02868C117B3
:1058F000090441EA1041000462460023CDE9000199
:1059000000F00BFB3246F317CDE9020100F005FB76
:1059100028601948D0F800C06868C117090441EA36
:105920001041000462460023CDE9000100F0F5FAC1
:105930003246F317CDE9020100F0EFFA68600E4835
:10594000D0F800C0A868C117090441EA104100045A
:1059500062460023CDE9000100F0DFFA3246F3177A
:10596000CDE9020100F0D9FAA8600348D0F804C0DC
:10597000206803E06401002034010020C1170904FD
:1059800041EA1041000462460023CDE9000100F025
:10599000C4FA3246F317CDE9020100F0BEFA2060E6
:1059A000FE48D0F804C06068C117090441EA1041FC
:1059B000000462460023CDE9000100F0AEFA324651
:1059C000F317CDE9020100F0A8FA6060F348D0F8BF
:1059D00004C0A068C117090441EA104100046246EE
:1059E0000023CDE9000100F098FA3246F317CDE923
:1059F000020100F092FAA060A068002804DDA0680F
:105A0000A0F58030A06003E0A06800F58030A060C1
:105A10000020BEE52DE9F04F8DB082460E461746B8
:105A200002200C9003A8FEF7C4FD05A8FEF7A4FD14
:105A300001A8FEF777FD6846FEF74DFD02A8FEF7C8
:105A400044FDD74890F80CB004A8FEF738FD0024B8
:105A500008E03B46002231465046FFF77EFD00B984
:105A600002E0641C022CF4DB00BF022C01D10025F3
:105A70002BE0002408E03B46012206A909A8FFF715
:105A80006CFD00B902E0641C022CF4DB00BF022CA8
:105A900001D1002519E03A4606A93046FFF7CCFBB4
:105AA00000F0FF083A4609A95046FFF794FC00F0C1
:105AB000FF090025B9F1000F01D145F00105B8F14A
:105AC000000F01D145F0020500BFFF20B449087264
:105AD000FF21B3484172417381734FF6FF71018218
